:100000000C946C000C9424070C94FD060C949A0636
:100010000C9437060C94C6050C9494000C94940030
:100020000C9494000C9494000C9494000C94940000
:100030000C9494000C9494000C9494000C949400F0
:100040000C947C050C9494000C944A050C942405A3
:100050000C9494000C9494000C9494000C949400D0
:100060000C9494000C9494000000000024002700DD
:100070002A0000000000250028002B0000000008D6
:10008000000201000003040700000000000000005F
:1000900000000000230026002900000102030405DF
:1000A000060700010203040500010203040504041D
:1000B0000404040404040202020202020303030310
:1000C00003030102040810204080010204081020EC
:1000D0000102040810204B0711241FBECFEFD8E007
:1000E000DEBFCDBF11E0A0E0B1E0E8E7FAE102C079
:1000F00005900D92A034B107D9F722E0A0E4B1E059
:1001000001C01D92A736B207E1F710E0CCE6D0E0BF
:1001100004C02197FE010E942F0DCB36D107C9F7ED
:100120000E949B070C943A0D0C940000E82FEF7787
:1001300087FD05C08EEF8E0F823008F48BC08E2FA6
:1001400090E0FC01EE53FF4F2491FC01E255FF4F7C
:100150003491323059F440917F01422B40937F011A
:1001600040917C01422B40937C0119C0333059F4FB
:1001700040917E01422B40937E0140917B01422BB6
:1001800040937B010CC0343051F440917D01422BEF
:1001900040937D0140917A01422B40937A01FC010A
:1001A000E656FF4FA4913230C1F4B0E0AA0FBB1F56
:1001B000A259BE4F6D937C93E4E9F0E0A591B49110
:1001C0008C9180936D018BE690E090936C0180930D
:1001D0006B0180916800816033C03330C1F4B0E0BE
:1001E000AA0FBB1FA15ABE4F6D937C93E6E9F0E0C6
:1001F000A591B4918C9180935E018CE690E09093F0
:100200006C0180936B0180916800826019C034306A
:10021000C9F4B0E0AA0FBB1FA25BBE4F6D937C93E5
:10022000E8E9F0E0A591B4918C9180934D018DE6C1
:1002300090E090936C0180936B01809168008460E2
:1002400080936800A0916B01B0916C01EC912E2B12
:100250002C9308959FB7F894E23099F470934A0173
:1002600060934901E898809169008C7F80936900D0
:1002700080916900816080936900E09AE89A9FBF4D
:10028000089570934C0160934B01E9988091690047
:10029000837F809369008091690084608093690006
:1002A000E19AE99AECCFCF92DF92EF92FF920F930F
:1002B0001F93CF93DF936C017A018B01C0E0D0E0F4
:1002C000CE15DF0589F0D8016D918D01D601ED9134
:1002D000FC910190F081E02DC6010995892B11F464
:1002E0007E0102C02196ECCFC701DF91CF911F9113
:1002F0000F91FF90EF90DF90CF900895089580E0E8
:1003000090E00895FC01538D448D252F30E0842F1B
:1003100090E0821B930B541710F0CF96089501972D
:100320000895FC01918D828D981761F0828DDF0117
:10033000A80FB11D5D968C91928D9F5F9F73928FD8
:1003400090E008958FEF9FEF0895FC01918D828DCD
:10035000981731F0828DE80FF11D858D90E008959A
:100360008FEF9FEF0895FC01918D228D892F90E0F2
:10037000805C9F4F821B91098F739927089580E8B5
:1003800091E00E94B30121E0892B09F420E0822F43
:100390000895FC01848DDF01A80FB11DA35ABF4F42
:1003A0002C91848D90E001968F739927848FA68974
:1003B000B7892C93A089B1898C9180648C93938D9B
:1003C000848D981306C00288F389E02D80818F7D8B
:1003D00080830895EF92FF920F931F93CF93DF9343
:1003E000EC0181E0888F9B8D8C8D981305C0E88986
:1003F000F989808185FD24C0F62E0B8D10E00F5FFA
:100400001F4F0F731127E02E8C8DE8120CC00FB612
:1004100007FCFACFE889F989808185FFF5CFCE0105
:100420000E94C901F1CF8B8DFE01E80FF11DE35A47
:10043000FF4FF0820B8FEA89FB898081806207C0C1
:10044000EE89FF896083E889F989808180648083EF
:1004500081E090E0DF91CF911F910F91FF90EF909D
:100460000895CF93DF93EC01888D8823C9F0EA8942
:10047000FB89808185FD05C0A889B9898C9186FD9D
:100480000FC00FB607FCF5CF808185FFF2CFA8899A
:10049000B9898C9185FFEDCFCE010E94C901E7CFCC
:1004A000DF91CF91089580E090E0892B29F00E94A0
:1004B000BF0181110C940000089590E0FC01E45804
:1004C000FF4F3491FC01EE53FF4F2491FC01E255A4
:1004D000FF4FE491EE2309F43BC0332339F133306D
:1004E00091F038F43130A9F0323001F584B58F7DC8
:1004F00012C0373091F03830A1F03430B9F4809127
:1005000080008F7D03C0809180008F778093800072
:100510000DC084B58F7784BD09C08091B0008F77FE
:1005200003C08091B0008F7D8093B000F0E0EE0FAB
:10053000FF1FEE58FF4FA591B4918FB7F894EC913F
:10054000611103C020952E2301C02E2B2C938FBF49
:100550000895CF93DF9390E0FC01EE53FF4F249179
:10056000FC01E255FF4F8491882361F190E0880FF0
:10057000991FFC01E859FF4FC591D491FC01EE5839
:10058000FF4FA591B491611109C09FB7F89488817C
:10059000209582238883EC912E230BC0623061F476
:1005A0009FB7F8943881822F809583238883EC91BC
:1005B0002E2B2C939FBF06C08FB7F894E8812E2B6B
:1005C00028838FBFDF91CF9108953FB7F894809132
:1005D000410190914201A0914301B091440126B59F
:1005E000A89B05C02F3F19F00196A11DB11D3FBF6B
:1005F000BA2FA92F982F8827820F911DA11DB11DF9
:10060000BC01CD0142E0660F771F881F991F4A95F4
:10061000D1F70895CF93DF93C3E3D2E06C817D815E
:100620008E819F8120E030E040E85FE30E94CB0AAA
:100630006C837D838E839F836C857D858E859F856E
:1006400020E030E040E85FE30E94CB0A6C877D87C2
:100650008E879F87DF91CF910895CF93DF93C3E378
:10066000D2E0688179818A819B8120E030E040E896
:100670005FE30E94CB0A688379838A839B836885C2
:1006800079858A859B8520E030E040E85FE30E9421
:10069000CB0A688779878A879B87DF91CF910895F6
:1006A000009769F0FC0101900020E9F73197AF0154
:1006B000481B590BBC0180E891E00C94530180E089
:1006C00090E008958F929F92AF92BF920F931F93E5
:1006D000CF93DF93CDB7DEB7A1970FB6F894DEBF07
:1006E0000FBECDBF19A2423008F44AE08E010F5D63
:1006F0001F4F842E912CA12CB12CA50194010E9496
:100700000D0DE62FB901CA0101501109EA3014F4A8
:10071000E05D01C0E95CD801EC93232B242B252B51
:1007200061F7C8010E945003A1960FB6F894DEBF8E
:100730000FBECDBFDF91CF911F910F91BF90AF90B2
:100740009F908F9008954F925F926F927F928F92B9
:100750009F92AF92BF92CF92DF92EF92FF926B0186
:100760007C01B42E9B01AC010E94080D882319F076
:1007700082E191E027C026013701E89477F82FEF56
:100780003FEF4FE75FE7C301B2010E94080D8111FF
:100790000DC02FEF3FEF4FE75FE7C301B2010E94AB
:1007A000370B18161CF486E191E00CC02FEF3FEFD9
:1007B0004FE75FE4C701B6010E94960C181684F457
:1007C0008AE191E0FF90EF90DF90CF90BF90AF90E3
:1007D0009F908F907F906F905F904F900C945003FC
:1007E0002FEF3FEF4FE75FECC701B6010E94370BD9
:1007F00087FDE6CF20E030E0A901C701B6010E94E5
:10080000370B87FF11C0E0918001F09181010190C9
:10081000F081E02D6DE280E891E009954C01F7FA56
:10082000F094F7F8F09402C0812C912CA12C60E098
:1008300070E080E09FE3AB1441F020E030E040E264
:1008400051E40E943C0BA394F6CF9B01AC01C7017D
:10085000B6010E94CB0A2B013C010E94B50B6B0133
:100860007C010E94E40B9B01AC01C301B2010E9418
:10087000CA0A2B013C014AE0C701B6010E9462038B
:100880007C01E80CF91CBB2069F0E0918001F0913B
:1008900081010190F081E02D6EE280E891E0099500
:1008A000E80EF91EDB2CDD2021F120E030E040E2F3
:1008B00051E4C301B2010E949B0C2B013C010E9438
:1008C000B50B4B01A12CB12C4AE0C501B4010E942B
:1008D0006203E80EF91EC501B4010E94E40B9B01FE
:1008E000AC01C301B2010E94CA0A2B013C01DA9497
:1008F000DACFC701FF90EF90DF90CF90BF90AF901D
:100900009F908F907F906F905F904F900895CF92BF
:10091000DF92EF92FF922FB7F8948091450190916A
:100920004601A0914701B09148012FBF40915B0261
:1009300050915C0260915D0270915E02841B950B88
:10094000A60BB70B883E9340A105B10508F475C00E
:100950006091330270913402809135029091360299
:1009600020E030E040E752E40E949B0C23EC3DE89D
:100970004CE055E40E943C0B6B017C016093430208
:10098000709344028093450290934602609137022F
:10099000709138028091390290913A0220E030E063
:1009A00040E752E40E949B0C23EC3DE84CE055E408
:1009B0000E943C0B60934702709348028093490267
:1009C00090934A0210923302109234021092350230
:1009D00010923602109237021092380210923902A9
:1009E00010923A0242E0C701B6010E94A3038EE1D1
:1009F00091E00E94500360914702709148028091FB
:100A0000490290914A0242E00E94A30382E291E0EF
:100A10000E9450032FB7F8948091450190914601B0
:100A2000A0914701B09148012FBF80935B02909342
:100A30005C02A0935D02B0935E02FF90EF90DF90A6
:100A4000CF9008950E94350D1F920F920FB60F920E
:100A500011242F933F934F935F936F937F938F93C3
:100A60009F93AF93BF93EF93FF9380E891E00E9431
:100A7000C901FF91EF91BF91AF919F918F917F91AC
:100A80006F915F914F913F912F910F900FBE0F90FB
:100A90001F9018951F920F920FB60F9211242F934B
:100AA0008F939F93EF93FF93E0919001F0919101C9
:100AB0008081E0919601F091970182FD12C09081B2
:100AC000809199018F5F8F7320919A01821751F065
:100AD000E0919901F0E0E058FE4F958F80939901E5
:100AE00001C08081FF91EF919F918F912F910F9085
:100AF0000FBE0F901F9018951F920F920FB60F9276
:100B000011242F933F938F939F93AF93BF93809123
:100B1000450190914601A0914701B0914801309163
:100B2000400123E0230F2D3720F40196A11DB11DB4
:100B300005C026E8230F0296A11DB11D2093400198
:100B40008093450190934601A0934701B0934801DB
:100B50008091410190914201A0914301B0914401E3
:100B60000196A11DB11D8093410190934201A09374
:100B70004301B0934401BF91AF919F918F913F91F9
:100B80002F910F900FBE0F901F9018951F920F92EC
:100B90000FB60F9211242F933F934F935F936F9350
:100BA0007F938F939F93AF93BF93CF93EF93FF93D5
:100BB00029B1C0914D0190917D0180917A01322F30
:100BC000309583239223892B90916D00C227C923EE
:100BD000C82320934D01CC23C1F1C0FF05C0E09193
:100BE0004E01F0914F010995C1FF05C0E091500100
:100BF000F09151010995C2FF05C0E0915201F091B9
:100C000053010995C3FF05C0E0915401F0915501CE
:100C10000995C4FF05C0E0915601F091570109956F
:100C2000C5FF05C0E0915801F09159010995C6FF33
:100C300005C0E0915A01F0915B010995C7FF05C01D
:100C4000E0915C01F0915D010995FF91EF91CF91E9
:100C5000BF91AF919F918F917F916F915F914F91D4
:100C60003F912F910F900FBE0F901F9018951F92DC
:100C70000F920FB60F9211242F933F934F935F93D0
:100C80006F937F938F939F93AF93BF93CF93EF9384
:100C9000FF9326B1C0915E0190917E0180917B010E
:100CA000322F309583239223892B90916C00C22799
:100CB000C923C82320935E01CC2351F1C0FF05C096
:100CC000E0915F01F09160010995C1FF05C0E091DD
:100CD0006101F09162010995C2FF05C0E0916301D5
:100CE000F09164010995C3FF05C0E0916501F091A1
:100CF00066010995C4FF05C0E0916701F0916801A4
:100D00000995C5FF05C0E0916901F0916A01099557
:100D1000FF91EF91CF91BF91AF919F918F917F9173
:100D20006F915F914F913F912F910F900FBE0F9058
:100D30001F9018951F920F920FB60F9211242F93A8
:100D40003F934F935F936F937F938F939F93AF9353
:100D5000BF93CF93EF93FF9323B1C0916D01909117
:100D60007F0180917C01322F309583239223892B40
:100D700090916B00C227C923C82320936D01CC2317
:100D800051F1C0FF05C0E0916E01F0916F0109952E
:100D9000C1FF05C0E0917001F09171010995C2FF9A
:100DA00005C0E0917201F09173010995C3FF05C080
:100DB000E0917401F09175010995C4FF05C0E091BF
:100DC0007601F09177010995C5FF05C0E0917801A2
:100DD000F09179010995FF91EF91CF91BF91AF917A
:100DE0009F918F917F916F915F914F913F912F9143
:100DF0000F900FBE0F901F9018951F920F920FB675
:100E00000F9211242F933F934F935F936F937F9390
:100E10008F939F93AF93BF93EF93FF93E0914B0119
:100E2000F0914C010995FF91EF91BF91AF919F9186
:100E30008F917F916F915F914F913F912F910F9083
:100E40000FBE0F901F9018951F920F920FB60F9222
:100E500011242F933F934F935F936F937F938F93BF
:100E60009F93AF93BF93EF93FF93E0914901F0916C
:100E70004A010995FF91EF91BF91AF919F918F9199
:100E80007F916F915F914F913F912F910F900FBE86
:100E90000F901F901895E0E8F1E01382128288EE1F
:100EA00093E0A0E0B0E084839583A683B78384E0D9
:100EB00091E09183808385EC90E09587848784EC32
:100EC00090E09787868780EC90E0918B808B81EC17
:100ED00090E0938B828B82EC90E0958B848B86ECF8
:100EE00090E0978B868B118E128E138E148EE3E317
:100EF000F2E082E084A784E085A786E086A72EE062
:100F000027A787E080AB88E081AB8CE082AB8FE0E5
:100F100083ABE8E2F2E091E09083218313821482B4
:100F200015821682EDE1F2E09083818313821482B0
:100F3000158216820895CF93DF93CDB7DEB7289739
:100F40000FB6F894DEBF0FBECDBF789484B5826033
:100F500084BD84B5816084BD85B5826085BD85B55D
:100F6000816085BD80916E00816080936E001092DB
:100F70008100809181008260809381008091810056
:100F800081608093810080918000816080938000E7
:100F90008091B10084608093B1008091B000816045
:100FA0008093B00080917A00846080937A00809171
:100FB0007A00826080937A0080917A0081608093C9
:100FC0007A0080917A00806880937A001092C10044
:100FD000E0919001F091910182E08083E0918C0199
:100FE000F0918D011082E0918E01F0918F018FECD4
:100FF000808310929801E0919401F091950186E030
:101000008083E0919201F0919301808180618083DF
:10101000E0919201F0919301808188608083E0915A
:101020009201F0919301808180688083E091920128
:10103000F091930180818F7D808385E291E00E9411
:10104000500382E291E00E9450036DE273E083E07E
:101050000E9496006DE273E085E00E9496006AE0CF
:1010600073E08BE00E9496006AE073E08DE00E94DE
:1010700096001092330210923402109235021092B0
:1010800036021092370210923802109239021092F2
:101090003A021092430210924402109245021092BA
:1010A0004602109247021092480210924902109292
:1010B0004A0210923B0210923C0210923D021092A2
:1010C0003E0210923F021092400210924102109292
:1010D000420280E090E0A0E2B3E480934B02909360
:1010E0004C02A0934D02B0934E0280E090E0AAE241
:1010F000B3E480934F0290935002A0935102B093B7
:10110000520210925B0210925C0210925D021092E9
:101110005E021092530210925402109255021092E5
:1011200056021092570210925802109259021092D1
:101130005A0261E080915F020E94A90261E0809101
:1011400060020E94A90261E089E00E94A90260E0B9
:10115000809161020E94A90260E0809162020E9477
:10116000A90261E0809163020E94A90261E080917E
:1011700064020E94A90261E08AE00E94A90260E084
:10118000809165020E94A90260E0809166020E943F
:10119000A90280EA8093800081E18093810080E948
:1011A00091E090938700809386000E94870400E975
:1011B00011E096E8292E3324339480E090E0A8E4EF
:1011C000B3E480934F0290935002A0935102B093E6
:1011D000520280934B0290934C02A0934D02B09325
:1011E0004E0210923F021092400210924102109261
:1011F000420210923B0210923C0210923D02109269
:101200003E0260913B0270913C0280913D029091C0
:101210003E0220E030E648EB54E40E94370B87FDA5
:1012200010C060913F027091400280914102909104
:10123000420220E030EE4AEB54E40E94370B87FF75
:1012400046C10E94870460914302709144028091DC
:101250004502909146020E94AE0B072E000C880BAF
:10126000990B0E94E60B9B01AC0160E070E088ECFA
:1012700092E40E94CA0A6B017C01209153023091D2
:10128000540240915502509156020E94CB0A4B01E4
:101290005C012AE037ED43E25BE3C701B6010E943F
:1012A0009B0C2B013C0120E030E0A901C501B401F9
:1012B0000E949B0C9B01AC01C301B2010E94CB0AAE
:1012C0002B013C0120915702309158024091590264
:1012D00050915A02C701B6010E94CA0A2FE632E1B4
:1012E00043E05AE30E949B0C9B01AC01C301B20195
:1012F0000E94CB0A20914B0230914C0240914D024A
:1013000050914E020E94CB0A69837A838B839C831F
:1013100060934B0270934C0280934D0290934E0267
:1013200060914702709148028091490290914A026F
:101330000E94AE0B072E000C880B990B0E94E60B47
:101340009B01AC0160E070E088EC92E40E94CA0A64
:101350002B013C019B01AC01C501B4010E94CB0AE9
:101360004B015C01609353027093540280935502C9
:10137000909356024092570250925802609259023E
:1013800070925A022AE037ED43E25BE3C301B201F7
:101390000E949B0C6D837E838F83988720E030E0D2
:1013A000A901C501B4010E949B0C9B01AC016D8198
:1013B0007E818F8198850E94CB0A4B015C01A70139
:1013C0009601C301B2010E94CA0A2FE632E143E04E
:1013D0005AE30E949B0C9B01AC01C501B4010E9421
:1013E000CB0A20914F02309150024091510250910E
:1013F00052020E94CB0A60934F0270935002809376
:101400005102909352020E94AE0B4B015C017B0192
:1014100069817A818B819C8190580E94AE0BAB01CF
:1014200077FF53C044275527461B570B21E0CA01BD
:101430004139514014F080E991E090938900809304
:101440008800892B11F460E00AC0222339F060E0A3
:1014500080915F020E945D0261E006C061E08091C0
:101460005F020E945D0260E0809160020E945D0266
:10147000F7FE06C0EE24FF24E818F90821E001C0B9
:1014800020E0C701A1E9EA16A1E0FA0614F080E91C
:1014900091E090938B0080938A00892B11F460E097
:1014A0000AC0222339F060E0809163020E945D024D
:1014B00061E006C061E0809163020E945D0260E02D
:1014C000809164020E945D029CCE20E0B0CF6091CA
:1014D0004B0270914C0280914D0290914E0242E07D
:1014E0000E94A3038DE391E00E94500360914F029C
:1014F00070915002809151029091520242E00E94FC
:10150000A30360E080915F020E945D0260E0809131
:1015100060020E945D02309289002092880060E0A3
:10152000809163020E945D0260E0809164020E94EB
:101530005D0210938B0000938A000E94E5024B012C
:101540005C0188EEC82E83E0D82EE12CF12C0E949D
:10155000E502DC01CB0188199909AA09BB09883E7B
:101560009340A105B10580F0B1E0CB1AD108E108A4
:10157000F108E8EE8E0EE3E09E1EA11CB11CC11422
:10158000D104E104F10419F7C114D104E104F10418
:10159000F1F613CE5058BB27AA270E94E20A0C94FA
:1015A0005C0C0E944E0C38F00E94550C20F039F46F
:1015B0009F3F19F426F40C944B0C0EF4E095E7FBD6
:1015C0000C94450CE92F0E946D0C58F3BA17620772
:1015D00073078407950720F079F4A6F50C948F0C17
:1015E0000EF4E0950B2EBA2FA02D0B01B90190013E
:1015F0000C01CA01A0011124FF27591B99F0593F82
:1016000050F4503E68F11A16F040A22F232F342FC9
:101610004427585FF3CF469537952795A795F04017
:101620005395C9F77EF41F16BA0B620B730B840B2C
:10163000BAF09150A1F0FF0FBB1F661F771F881FE4
:10164000C2F70EC0BA0F621F731F841F48F487953C
:1016500077956795B795F7959E3F08F0B0CF93952E
:10166000880F08F09927EE0F9795879508950E94A7
:10167000210C08F481E008950E94500B0C945C0C3E
:101680000E94550C58F00E944E0C40F029F45F3F28
:1016900029F00C94450C51110C94900C0C944B0CAB
:1016A0000E946D0C68F39923B1F3552391F3951BB8
:1016B000550BBB27AA2762177307840738F09F5F73
:1016C0005F4F220F331F441FAA1FA9F335D00E2EE0
:1016D0003AF0E0E832D091505040E695001CCAF74D
:1016E0002BD0FE2F29D0660F771F881FBB1F261710
:1016F00037074807AB07B0E809F0BB0B802DBF01E7
:10170000FF2793585F4F3AF09E3F510578F00C94B5
:10171000450C0C94900C5F3FE4F3983ED4F386950F
:1017200077956795B795F7959F5FC9F7880F911DD6
:101730009695879597F90895E1E0660F771F881FC2
:10174000BB1F621773078407BA0720F0621B730B75
:10175000840BBA0BEE1F88F7E09508950E94B50B35
:101760006894B1110C94900C08950E94750C88F047
:101770009F5798F0B92F9927B751B0F0E1F0660F55
:10178000771F881F991F1AF0BA95C9F714C0B13096
:1017900091F00E948F0CB1E008950C948F0C672F8C
:1017A000782F8827B85F39F0B93FCCF386957795C5
:1017B0006795B395D9F73EF49095809570956195AE
:1017C0007F4F8F4F9F4F0895E89409C097FB3EF4D9
:1017D00090958095709561957F4F8F4F9F4F99237E
:1017E000A9F0F92F96E9BB279395F69587957795FC
:1017F0006795B795F111F8CFFAF4BB0F11F460FFBC
:101800001BC06F5F7F4F8F4F9F4F16C0882311F013
:1018100096E911C0772321F09EE8872F762F05C027
:10182000662371F096E8862F70E060E02AF09A95C2
:10183000660F771F881FDAF7880F9695879597F9B7
:101840000895990F0008550FAA0BE0E8FEEF161651
:101850001706E807F907C0F012161306E407F507A4
:1018600098F0621B730B840B950B39F40A2661F018
:10187000232B242B252B21F408950A2609F4A140BB
:10188000A6958FEF811D811D089597F99F6780E8C8
:1018900070E060E008959FEF80EC089500240A94C2
:1018A0001616170618060906089500240A9412163B
:1018B0001306140605060895092E0394000C11F46E
:1018C000882352F0BB0F40F4BF2B11F460FF04C01B
:1018D0006F5F7F4F8F4F9F4F089557FD9058440F74
:1018E000551F59F05F3F71F04795880F97FB991F7F
:1018F00061F09F3F79F0879508951216130614063C
:10190000551FF2CF4695F1DF08C0161617061806C8
:10191000991FF1CF86957105610508940895E894A3
:10192000BB2766277727CB0197F908950E94210CE2
:1019300008F48FEF08950E94AE0C0C945C0C0E948A
:101940004E0C38F00E94550C20F0952311F00C94A9
:10195000450C0C944B0C11240C94900C0E946D0CB3
:1019600070F3959FC1F3950F50E0551F629FF001F2
:10197000729FBB27F00DB11D639FAA27F00DB11D0B
:10198000AA1F649F6627B00DA11D661F829F222794
:10199000B00DA11D621F739FB00DA11D621F839F1B
:1019A000A00D611D221F749F3327A00D611D231FF1
:1019B000849F600D211D822F762F6A2F11249F573F
:1019C00050409AF0F1F088234AF0EE0FFF1FBB1F42
:1019D000661F771F881F91505040A9F79E3F510501
:1019E00080F00C94450C0C94900C5F3FE4F3983E0F
:1019F000D4F3869577956795B795F795E7959F5FAB
:101A0000C1F7FE2B880F911D9695879597F908953C
:101A10000E94210C880B990B0895A1E21A2EAA1B93
:101A2000BB1BFD010DC0AA1FBB1FEE1FFF1FA2178E
:101A3000B307E407F50720F0A21BB30BE40BF50B8B
:101A4000661F771F881F991F1A9469F76095709514
:101A5000809590959B01AC01BD01CF010895EE0FDB
:101A6000FF1F0590F491E02D099481E090E0F89437
:081A70000C943A0DF894FFCF2D
:101A780000000000EA01530182013102B301910123
:101A8800A5016E616E00696E66006F766600203A89
:101A980020000D0A00456E636F64657220496E74FC
:101AA80065727275707420546573743A002C200046
:107E0000112484B714BE81FFF0D085E080938100F7
:107E100082E08093C00088E18093C10086E0809377
:107E2000C20080E18093C4008EE0C9D0259A86E02C
:107E300020E33CEF91E0309385002093840096BBD3
:107E4000B09BFECF1D9AA8958150A9F7CC24DD24C4
:107E500088248394B5E0AB2EA1E19A2EF3E0BF2EE7
:107E6000A2D0813461F49FD0082FAFD0023811F036
:107E7000013811F484E001C083E08DD089C08234E0
:107E800011F484E103C0853419F485E0A6D080C0E4
:107E9000853579F488D0E82EFF2485D0082F10E0AE
:107EA000102F00270E291F29000F111F8ED06801E7
:107EB0006FC0863521F484E090D080E0DECF843638
:107EC00009F040C070D06FD0082F6DD080E0C81688
:107ED00080E7D80618F4F601B7BEE895C0E0D1E017
:107EE00062D089930C17E1F7F0E0CF16F0E7DF06D8
:107EF00018F0F601B7BEE89568D007B600FCFDCFD4
:107F0000A601A0E0B1E02C9130E011968C91119780
:107F100090E0982F8827822B932B1296FA010C0160
:107F200087BEE89511244E5F5F4FF1E0A038BF0790
:107F300051F7F601A7BEE89507B600FCFDCF97BE46
:107F4000E89526C08437B1F42ED02DD0F82E2BD052
:107F50003CD0F601EF2C8F010F5F1F4F84911BD097
:107F6000EA94F801C1F70894C11CD11CFA94CF0C13
:107F7000D11C0EC0853739F428D08EE10CD085E9AC
:107F80000AD08FE07ACF813511F488E018D01DD067
:107F900080E101D065CF982F8091C00085FFFCCF94
:107FA0009093C60008958091C00087FFFCCF809118
:107FB000C00084FD01C0A8958091C6000895E0E648
:107FC000F0E098E1908380830895EDDF803219F02E
:107FD00088E0F5DFFFCF84E1DECF1F93182FE3DFCA
:107FE0001150E9F7F2DF1F91089580E0E8DFEE27F6
:047FF000FF270994CA
:027FFE00040479
:0400000300007E007B
:00000001FF