:100000000C9463010C94CF070C94A8070C9445073B
:100010000C94E2060C9471060C948B010C948B01E9
:100020000C948B010C948B010C948B010C948B0120
:100030000C948B010C948B010C948B010C948B0110
:100040000C94F1030C948B010C9439030C9413035E
:100050000C948B010C948B010C948B010C948B01F0
:100060000C948B010C948B019514351835183518A8
:100070003518351835183518351835187A163518D5
:1000800035187D163518D61383168716351835188A
:10009000AC16881735183518921635181E153518F0
:1000A000AC158016351835182014084AD73B3BCEBE
:1000B000016E84BCBFFDC12F3D6C74319ABD568367
:1000C0003DDA3D00C77F11BED9E4BB4C3E916BAA1F
:1000D000AABE000000803F07634236B79BD8A71A2C
:1000E00039685618AEBAAB558C1D3CB7CC5763BDBA
:1000F0006DEDFD753EF6177231BF000000803F08C0
:10010000000000BE922449123EABAAAA2ABECDCC62
:10011000CC4C3E00000080BEABAAAAAA3E00000064
:1001200000BF000000803F0000000000084178D3BD
:10013000BB4387D1133D190E3CC3BD4282AD2B3E5C
:1001400068EC8276BED98FE1A93E4C80EFFFBE01FC
:10015000C4FF7F3F00000000000000407A10F35A07
:1001600000A0724E18090010A5D4E80000E87648F7
:10017000170000E40B54020000CA9A3B000000E1A3
:10018000F505000080969800000040420F00000036
:10019000A08601000000102700000000E803000016
:1001A00000006400000000000A00000000000100E0
:1001B000000000002C76D888DC674F0823DFC1DF01
:1001C000AE59E1B1B796E5E3E453C63AE651997604
:1001D00096E8E6C28426EB898C9B62ED407C6FFC3E
:1001E000EFBC9C9F40F2BAA56FA5F490055A2AF780
:1001F0005C936B6CF9676DC11BFCE0E40D47FEF589
:1002000020E6B500D0ED902E0300943577050080F0
:10021000841E080000204E0A000000C80C3333334F
:10022000330F986E12831141EF8D2114893BE655EF
:1002300016CFFEE6DB18D1844B381BF77C1D901DD2
:10024000A4BBE424203284725E228100C9F124EC34
:10025000A1E53D2700000000240027002A0000003F
:100260000000250028002B0000000008000201000B
:100270000003040700000000000000000000000070
:1002800023002600290000010203040506070001DF
:100290000203040500010203040504040404040429
:1002A0000404020202020202030303030303010225
:1002B00004081020408001020408102001020408F4
:1002C0001020D319CF1911241FBECFEFD8E0DEBF05
:1002D000CDBF22E0ACE2B1E001C01D92A13AB2076D
:1002E000E1F711E0A0E0B1E0E4E6F7E402C0059038
:1002F0000D92AC32B107D9F711E0C2E6D1E004C0EB
:100300002197FE010E945321C136D107C9F70E94EF
:1003100006120C94A5230C940000089580E090E050
:100320000895FC01538D448D252F30E0842F90E0FB
:10033000821B930B541710F0CF96089501970895E0
:10034000FC01918D828D981761F0828DDF01A80FDD
:10035000B11D5D968C91928D9F5F9F73928F90E0FF
:1003600008958FEF9FEF0895FC01918D828D98176E
:1003700031F0828DE80FF11D858D90E008958FEFAB
:100380009FEF0895FC01918D228D892F90E0805C74
:100390009F4F821B91098F739927089580E791E001
:1003A0000E94C20121E0892B09F420E0822F0895E8
:1003B000FC01848DDF01A80FB11DA35ABF4F2C9102
:1003C000848D90E001968F739927848FA689B789D1
:1003D0002C93A089B1898C9180648C93938D848DAA
:1003E000981306C00288F389E02D80818F7D808379
:1003F0000895EF92FF920F931F93CF93DF93EC0139
:1004000081E0888F9B8D8C8D981305C0E889F989D0
:10041000808185FD24C0F62E0B8D10E00F5F1F4FED
:100420000F731127E02E8C8DE8120CC00FB607FC5D
:10043000FACFE889F989808185FFF5CFCE010E9446
:10044000D801F1CF8B8DFE01E80FF11DE35AFF4F6C
:10045000F0820B8FEA89FB898081806207C0EE8978
:10046000FF896083E889F98980818064808381E0E5
:1004700090E0DF91CF911F910F91FF90EF90089541
:10048000CF93DF93EC01888D8823C9F0EA89FB893B
:10049000808185FD05C0A889B9898C9186FD0FC032
:1004A0000FB607FCF5CF808185FFF2CFA889B98907
:1004B0008C9185FFEDCFCE010E94D801E7CFDF916F
:1004C000CF91089580E090E0892B29F00E94CE0121
:1004D00081110C9400000895CF93DF9390E0FC010C
:1004E000E255FD4F2491FC01E656FD4F849188238F
:1004F00061F190E0880F991FFC01EC5AFD4FC59106
:10050000D491FC01E25AFD4FA591B491611109C04B
:100510009FB7F8948881209582238883EC912E23BD
:100520000BC0623061F49FB7F8943881822F8095B8
:1005300083238883EC912E2B2C939FBF06C08FB70B
:10054000F894E8812E2B28838FBFDF91CF910895F7
:100550003FB7F89480912D0190912E01A0912F0129
:10056000B091300126B5A89B05C02F3F19F0019628
:10057000A11DB11D3FBFBA2FA92F982F8827820F29
:10058000911DA11DB11DBC01CD0142E0660F771F79
:10059000881F991F4A95D1F70895CF93DF93C7E637
:1005A000D2E06C817D818E819F8120E030E040E847
:1005B0005FE30E946E1E6C837D838E839F836C85B8
:1005C0007D858E859F8520E030E040E85FE30E94D6
:1005D0006E1E6C877D878E879F87DF91CF910895F0
:1005E000CF93DF93C7E6D2E0688179818A819B81CE
:1005F00020E030E040E85FE30E946E1E688379836C
:100600008A839B83688579858A859B8520E030E095
:1006100040E85FE30E946E1E688779878A879B8720
:10062000DF91CF9108951F920F920FB60F92112470
:100630002F933F934F935F936F937F938F939F93EA
:10064000AF93BF93EF93FF9380E791E00E94D801AF
:10065000FF91EF91BF91AF919F918F917F916F919A
:100660005F914F913F912F910F900FBE0F901F9070
:1006700018951F920F920FB60F9211242F938F93FC
:100680009F93EF93FF93E0918001F091810180812E
:10069000E0918601F091870182FD12C090818091E6
:1006A00089018F5F8F7320918A01821751F0E09149
:1006B0008901F0E0E059FE4F958F8093890101C0D8
:1006C0008081FF91EF919F918F912F910F900FBE9D
:1006D0000F901F90189590E0FC01E859FD4F349160
:1006E000FC01E255FD4F2491FC01E656FD4FE491DB
:1006F000EE2309F43BC0332339F1333091F038F461
:100700003130A9F0323001F584B58F7D12C0373019
:1007100091F03830A1F03430B9F4809180008F7DB1
:1007200003C0809180008F77809380000DC084B5D6
:100730008F7784BD09C08091B0008F7703C080910E
:10074000B0008F7D8093B000F0E0EE0FFF1FE25A03
:10075000FD4FA591B4918FB7F894EC91611103C04E
:1007600020952E2301C02E2B2C938FBF08958F929E
:100770009F92AF92BF92CF92DF92EF92FF926B0166
:100780007C010E94A8024B015C01C114D104E10468
:10079000F104F1F00E94A802DC01CB01881999094B
:1007A000AA09BB09883E9340A105B10570F321E079
:1007B000C21AD108E108F10888EE880E83E0981E7D
:1007C000A11CB11CC114D104E104F10419F7DDCF5F
:1007D000FF90EF90DF90CF90BF90AF909F908F9061
:1007E00008951F920F920FB60F9211242F933F93EB
:1007F0008F939F93AF93BF9380913701909138016E
:10080000A0913901B0913A0130912C0123E0230FDE
:100810002D3720F40196A11DB11D05C026E8230F38
:100820000296A11DB11D20932C0180933701909356
:100830003801A0933901B0933A0180912D01909134
:100840002E01A0912F01B09130010196A11DB11D83
:1008500080932D0190932E01A0932F01B09330012E
:10086000BF91AF919F918F913F912F910F900FBEAC
:100870000F901F9018958F929F92AF92BF92CF9238
:10088000DF92EF92FF920F931F93CF93DF93CDB739
:10089000DEB78C01ADB6BEB62FB7F89480913701A4
:1008A00090913801A0913901B0913A012FBFF80120
:1008B00086839783A087B1878DB79EB7885C91099F
:1008C0000FB6F8949EBF0FBE8DBF2DB73EB72F5FFA
:1008D0003F4F4DB75EB747535F4FF901D8011196AF
:1008E0008C918E3008F08E508770806480937C00ED
:1008F00080917A00806480937A0080917A0086FDEE
:10090000FCCF809178006091790090E0962B8193E4
:100910009193E417F50711F783E690E0F90140E0C1
:1009200050E0A1E0481759078CF4819091906081C4
:100930007181681579053CF4DF0112976D937C9302
:1009400091828082A0E04F5F5F4FECCFA11102C087
:10095000019721F7F8018081813009F454C008F132
:10096000823009F072C0F901EC59FF4F608171814A
:10097000072E000C880B990B0E94191D2AE038E203
:1009800040EA5BE30E94781D2DEC3CEC4CE85FEB09
:100990000E94E51F20E030E042E852E40E94781D0A
:1009A0004BC0F901EC59FF4F608171816B507109A7
:1009B0008CE198E00E943F21072E000C880B990BD8
:1009C0000E94191D6B017C01D80112966D937D93D5
:1009D0008D939C93159720E030E040EF51E40E9406
:1009E000D81F181664F120E030E040E850E4C70159
:1009F000B6010E94121D87FF28C0C12CD12C80E4B3
:100A0000E82EFE2C22C0F901EC59FF4F6081718164
:100A1000072E000C880B990B0E94191D9B01AC013D
:100A200066E676E38DE395E40E94091F21EB30E54D
:100A30004BE95FE30E94E51F6B017C0106C0C12CFE
:100A4000D12C98EFE92E91E4F92E0FB6F894BEBEA2
:100A50000FBEADBEC701B6010FB6F894BEBE0FBE45
:100A6000ADBEDF91CF911F910F91FF90EF90DF907E
:100A7000CF90BF90AF909F908F9008958DE392E0BC
:100A80000E943B0420E030E040E751E40E94121D48
:100A9000181614F00C94010D08954F925F926F9206
:100AA0007F928F929F92AF92BF92CF92DF92EF92FE
:100AB000FF928FE292E00E943B044B015C0181E2D5
:100AC00092E00E943B042B013C019B01AC01C5015B
:100AD000B4010E946D1E6B017C0120E030E0A90191
:100AE0000E94D81F181624F0F7FAF094F7F8F09443
:100AF0002AE037ED43E25CE3C701B6010E94121D14
:100B00001816A4F520E030E040E651E4C701B60134
:100B10000E94091F0E94DA1E20E030E044E353E403
:100B20000E94781D2BED3FE049E450E40E94091F2C
:100B30006B017C01A3019201C501B4010E94D81F81
:100B4000181624F0C701B601905802C0C701B601BB
:100B5000FF90EF90DF90CF90BF90AF909F908F90DD
:100B60007F906F905F904F900C94B40BFF90EF903C
:100B7000DF90CF90BF90AF909F908F907F906F90BD
:100B80005F904F9008958FE292E00E943B0420E036
:100B900030E048E751E40E94121D18160CF4089545
:100BA00081E292E00E943B0420E030E048E751E41B
:100BB0000E94121D181614F00C944D0508954F92C2
:100BC0005F926F927F928F929F92AF92BF92CF92DD
:100BD000DF92EF92FF9289E592E00E943B044B0185
:100BE0005C018BE492E00E943B042B013C019B01E1
:100BF000AC01C501B4010E946D1E6B017C0120E0B7
:100C000030E0A9010E94D81F181624F0F7FAF094DA
:100C1000F7F8F0942AE037ED43E25CE3C701B60150
:100C20000E94121D1816A4F520E030E040E651E4C1
:100C3000C701B6010E94091F0E94DA1E20E030E0C1
:100C400044E353E40E94781D2BED3FE049E450E477
:100C50000E94091F6B017C01A3019201C501B4012F
:100C60000E94D81F181624F0C701B601905802C080
:100C7000C701B601FF90EF90DF90CF90BF90AF908B
:100C80009F908F907F906F905F904F900C94B40BDB
:100C9000FF90EF90DF90CF90BF90AF909F908F909C
:100CA0007F906F905F904F90089589E592E00E9449
:100CB0003B0420E030E040E651E40E94121D18168B
:100CC0000CF408958BE492E00E943B0420E030E0B5
:100CD00040E651E40E94121D181614F00C94DF0532
:100CE00008951F920F920FB60F9211242F933F93E6
:100CF0004F935F936F937F938F939F93AF93BF9324
:100D0000CF93EF93FF9329B1C0913F0190916D0173
:100D100080916A01322F309583239223892B909101
:100D20006D00C227C923C82320933F01CC23C1F102
:100D3000C0FF05C0E0914001F09141010995C1FF5C
:100D400005C0E0914201F09143010995C2FF05C041
:100D5000E0914401F09145010995C3FF05C0E09180
:100D60004601F09147010995C4FF05C0E091480193
:100D7000F09149010995C5FF05C0E0914A01F09144
:100D80004B010995C6FF05C0E0914C01F0914D0162
:100D90000995C7FF05C0E0914E01F0914F010995FB
:100DA000FF91EF91CF91BF91AF919F918F917F91E3
:100DB0006F915F914F913F912F910F900FBE0F90C8
:100DC0001F9018951F920F920FB60F9211242F9318
:100DD0003F934F935F936F937F938F939F93AF93C3
:100DE000BF93CF93EF93FF9326B1C09150019091A1
:100DF0006E0180916B01322F309583239223892BD2
:100E000090916C00C227C923C82320935001CC23A2
:100E100051F1C0FF05C0E0915101F09152010995D7
:100E2000C1FF05C0E0915301F09154010995C2FF43
:100E300005C0E0915501F09156010995C3FF05C029
:100E4000E0915701F09158010995C4FF05C0E09168
:100E50005901F0915A010995C5FF05C0E0915B0168
:100E6000F0915C010995FF91EF91CF91BF91AF9106
:100E70009F918F917F916F915F914F913F912F91B2
:100E80000F900FBE0F901F9018951F920F920FB6E4
:100E90000F9211242F933F934F935F936F937F9300
:100EA0008F939F93AF93BF93CF93EF93FF9323B110
:100EB000C0915D0190916F0180916C01322F30954E
:100EC00083239223892B90916B00C227C923C823C7
:100ED00020935D01CC2351F1C0FF05C0E0915E017C
:100EE000F0915F010995C1FF05C0E0916001F091AB
:100EF00061010995C2FF05C0E0916201F0916301B3
:100F00000995C3FF05C0E0916401F0916501099561
:100F1000C4FF05C0E0916601F09167010995C5FF26
:100F200005C0E0916801F09169010995FF91EF9189
:100F3000CF91BF91AF919F918F917F916F915F9171
:100F40004F913F912F910F900FBE0F901F901895CA
:100F50001F920F920FB60F9211242F933F934F932E
:100F60005F936F937F938F939F93AF93BF93EF9311
:100F7000FF93E0913D01F0913E010995FF91EF91C2
:100F8000BF91AF919F918F917F916F915F914F91A1
:100F90003F912F910F900FBE0F901F9018951F92A9
:100FA0000F920FB60F9211242F933F934F935F939D
:100FB0006F937F938F939F93AF93BF93EF93FF9321
:100FC000E0913B01F0913C010995FF91EF91BF91B8
:100FD000AF919F918F917F916F915F914F913F91D1
:100FE0002F910F900FBE0F901F9018950E946423B1
:100FF000E82FEF7787FD05C08EEF8E0F823008F463
:101000008BC08E2F90E0FC01E255FD4F2491FC0136
:10101000E656FD4F3491323059F440916F01422B26
:1010200040936F0140916C01422B40936C0119C0B9
:10103000333059F440916E01422B40936E01409140
:101040006B01422B40936B010CC0343051F4409142
:101050006D01422B40936D0140916A01422B4093F8
:101060006A01FC01EA57FD4FA4913230C1F4B0E0AF
:10107000AA0FBB1FA25ABE4F6D937C93E0E8F2E02B
:10108000A591B4918C9180935D018BE690E0909353
:101090009C0280939B0280916800816033C0333052
:1010A000C1F4B0E0AA0FBB1FAF5ABE4F6D937C9343
:1010B000E2E8F2E0A591B4918C91809350018CE626
:1010C00090E090939C0280939B02809168008260E4
:1010D00019C03430C9F4B0E0AA0FBB1FA05CBE4FEA
:1010E0006D937C93E4E8F2E0A591B4918C918093A8
:1010F0003F018DE690E090939C0280939B0280914B
:101100006800846080936800A0919B02B0919C026B
:10111000EC912E2B2C9308959FB7F894E23099F41C
:1011200070933C0160933B01E898809169008C7F4B
:101130008093690080916900816080936900E09AE2
:10114000E89A9FBF089570933E0160933D01E9982E
:1011500080916900837F8093690080916900846039
:1011600080936900E19AE99AECCFEF92FF921F9386
:10117000CF93DF931F92CDB7DEB7162F7C0197FF79
:1011800003C0F194E194F10860E0809193027983C7
:101190000E946B0360E0809194020E946B039701B0
:1011A000798181E9E81681E0F80614F020E931E060
:1011B0003093890020938800E12EF72EF7FE03C0BC
:1011C000F194E194F10860E0809197020E946B0332
:1011D00060E0809198020E946B03970181E9E81614
:1011E00081E0F80614F020E931E030938B00209381
:1011F0008A000F90DF91CF911F91FF90EF9008959B
:10120000CF93DF93EB0197FF05C0919581959109ED
:1012100021E001C020E0813931E0930714F080E93A
:1012200091E09093890080938800892B11F460E00D
:101230000AC0222339F060E0809193020E946B0380
:1012400061E006C061E0809193020E946B0360E060
:10125000809194020E946B03D7FF05C0D195C19580
:10126000D10981E001C080E0C13991E0D90714F0D3
:10127000C0E9D1E0D0938B00C0938A00CD2B11F44C
:1012800060E00AC0882339F060E0809197020E94F4
:101290006B0361E006C061E0809197020E946B03DE
:1012A00060E080919802DF91CF910C946B034F9294
:1012B0005F926F927F928F929F92AF92BF92CF92E6
:1012C000DF92EF92FF920F931F93CF93DF93CDB7EF
:1012D000DEB728970FB6F894DEBF0FBECDBF2B0147
:1012E0003C0129833A834B835C8360E070E0CB014F
:1012F0000E94191D9B01AC0160E070E088EC92E453
:101300000E946D1E6B017C0107E612E0F80120A12E
:1013100031A142A153A10E946E1E4B015C01F80154
:1013200060A371A382A393A324A135A146A157A1D1
:10133000C701B6010E946D1E6D837E838F839887DF
:10134000F801C4A2D5A2E6A2F7A2A7019601C301A3
:10135000B2010E94781D6B017C0120E030E0A90100
:10136000C501B4010E94781D9B01AC01C701B60103
:101370000E946E1E6B017C012D813E814F8158853C
:1013800069817A818B819C810E94781D9B01AC01CF
:10139000C701B6010E946E1E28960FB6F894DEBFF4
:1013A0000FBECDBFDF91CF911F910F91FF90EF90B6
:1013B000DF90CF90BF90AF909F908F907F906F9075
:1013C0005F904F9008952FB7F894809137019091D6
:1013D0003801A0913901B0913A012FBF40918F029D
:1013E000509190026091910270919202841B950B32
:1013F000A60BB70B843F9140A105B10508F45BC073
:1014000060916702709168028091690290916A020E
:1014100020E030E040EF52E40E94781D23EC3DE8EC
:101420004CE055E40E94091F6093770270937802A4
:101430008093790290937A0260916B0270916C02B2
:1014400080916D0290916E0220E030E040EF52E416
:101450000E94781D23EC3DE84CE055E40E94091FF2
:1014600060937B0270937C0280937D0290937E0256
:1014700010926702109268021092690210926A023A
:1014800010926B0210926C0210926D0210926E021A
:101490002FB7F8948091370190913801A0913901CC
:1014A000B0913A012FBF80938F0290939002A09346
:1014B0009102B093920208954F925F926F927F9241
:1014C0008F929F92AF92BF92CF92DF92EF92FF9254
:1014D000CF93C42F20E030E04CEE52E40E94781D00
:1014E0000E947B1F6B011092730210927402109283
:1014F00075021092760210926F0210927002109292
:1015000071021092720210926B0210926C02109291
:101510006D0210926E021092670210926802109291
:10152000690210926A0210928F0210929002109239
:1015300091021092920210928702109288021092E9
:10154000890210928A0210928B0210928C021092E1
:101550008D0210928E0280E090E0A8E4B2E48093C5
:10156000830290938402A0938502B09386028093B5
:101570007F0290938002A0938102B093820262E383
:1015800070E082E390E00E94000960E070E080E09B
:1015900090E00E94B50884E1C81AD1080D2C000C17
:1015A000EE08FF0840906F02509070026090710248
:1015B00070907202C701B6010E94191D4B015C01B7
:1015C0009B01AC01C301B2010E94121D87FD2DC019
:1015D000609173027091740280917502909176020D
:1015E000A50194010E94121D87FD1FC060E070E0FC
:1015F00080E090E00E94000960E971E080E991E0FC
:101600000E94B50864E670E080E090E0CF91FF9022
:10161000EF90DF90CF90BF90AF909F908F907F9092
:101620006F905F904F900C94B7030E94E3092AE0FB
:1016300037ED43EA5BE362E878EA8BEF99E30E94D7
:1016400057099B01AC0160917F02709180028091EB
:101650008102909182020E946E1E60937F027093BD
:10166000800280938102909382022AE037ED43EA60
:101670005BE367E270EA89E09AE30E9457092091F0
:1016800083023091840240918502509186020E942B
:101690006E1E4B015C016093830270938402809301
:1016A00085029093860220E030E0A90160917F02DC
:1016B0007091800280918102909182020E94121D9D
:1016C00087FF08C010927F02109280021092810260
:1016D0001092820220E030E0A901C501B4010E940D
:1016E000121D87FF08C0109283021092840210928C
:1016F000850210928602CC23D9F0809183029091CA
:101700008402A0918502B0918602BC01CD0190585F
:101710000E947B1F4B015C0180917F0290918002AF
:10172000A0918102B0918202BC01CD01905814C0F9
:10173000609183027091840280918502909186026B
:101740000E947B1F4B015C0160917F0270918002BF
:1017500080918102909182020E947B1FDC01CB016B
:10176000B4010E9400091ECF4F925F926F927F9248
:101770008F929F92AF92BF92CF92DF92EF92FF92A1
:10178000CF93DF9300D000D0CDB7DEB76B017C01E3
:1017900020E030E0A9010E94D81F20E030E044EBB7
:1017A00053E418161CF4C701B60103C0C701B60103
:1017B00090580E94091F29ED30EA45E552E40E9445
:1017C000781D20E030E04CEE52E40E94781D0E942B
:1017D0007B1F5B01109273021092740210927502CB
:1017E0001092760210926F021092700210927102A3
:1017F0001092720210926B0210926C0210926D02A3
:1018000010926E02109267021092680210926902A2
:1018100010926A0210928F0210929002109291021E
:1018200010929202109287021092880210928902FE
:1018300010928A0210928B0210928C0210928D02EA
:1018400010928E0280E090E0A6E1B3E480938302E0
:1018500090938402A0938502B093860280937F02C6
:1018600090938002A0938102B093820266E970E0B7
:1018700086E990E00E94000960E070E080E090E07E
:101880000E94B508B50162537109CB01770FAA0B0D
:10189000BB0B89839A83AB83BC8340906F025090CB
:1018A0007002609071027090720269817A818B81FE
:1018B0009C810E94191D4B015C019B01AC01C3017D
:1018C000B2010E94121D87FD2CC0609173027091BD
:1018D00074028091750290917602A50194010E9494
:1018E000121D87FD1EC060E070E080E090E00E9465
:1018F000000960E971E080E991E00F900F900F908E
:101900000F90DF91CF91FF90EF90DF90CF90BF903D
:10191000AF909F908F907F906F905F904F900C94BE
:10192000B5080E94E3092FE632E143E05AE362E89A
:1019300078EA8BEF99E30E9457099B01AC01609113
:101940007F027091800280918102909182020E94B8
:101950006E1E60937F027093800280938102909349
:10196000820222E539E44DE959E36FE672E183E052
:101970009AE30E945709209183023091840240919A
:101980008502509186020E946E1E4B015C0160939D
:10199000830270938402809385029093860220E0F4
:1019A00030E0A901C701B6010E94D81F181684F4BF
:1019B000C501B40190580E947B1F4B015C016091EE
:1019C0007F0270918002809181029091820211C009
:1019D000C501B4010E947B1F4B015C0180917F0215
:1019E00090918002A0918102B0918202BC01CD0150
:1019F00090580E947B1FDC01CB01B4010E940009BA
:101A00004CCFCF92DF92EF92FF92CF93DF93C2E061
:101A1000D0E08DE392E00E943B0420E030E040E320
:101A200051E40E946D1E6B017C0120E030E0A901B1
:101A30000E94D81F181674F420E030E040E05FE305
:101A4000C701B6010E94121D181614F540E0C70127
:101A5000B60117C020E030E040E05FEBC701B601FF
:101A60000E94D81F87FF14C020E030E0A901C70101
:101A7000B6010E94121D87FF06C0C701B60190582B
:101A800041E00E945C0A219719F0C1E0D0E0C1CF8B
:101A9000DF91CF91FF90EF90DF90CF900895CF929C
:101AA000DF92EF92FF9210928702109288021092BA
:101AB000890210928A0210928B0210928C0210926C
:101AC0008D0210928E021092730210927402109284
:101AD00075021092760210926F02109270021092AC
:101AE00071021092720210926B0210926C021092AC
:101AF0006D0210926E0210926702109268021092AC
:101B0000690210926A0210928F0210929002109253
:101B100091021092920280E090E0AAE7B3E48093F1
:101B2000830290938402A0938502B09386028093EF
:101B30007F0290938002A0938102B093820260E0C2
:101B400070E080E090E00E94B5086091830270919F
:101B5000840280918502909186020E947B1F6B0116
:101B60007C0180917F0290918002A0918102B091CE
:101B70008202BC01CD0190580E947B1FDC01CB0189
:101B8000B6010E94000960916F027091700280910D
:101B900071029091720220E030EE45EB54E40E9415
:101BA000121D87FF3DC00E94E3092FE632E143E0AA
:101BB0005AE361EA70E88DEE99E30E9457099B01B0
:101BC000AC0160917F0270918002809181029091BE
:101BD00082020E946E1E60937F0270938002809347
:101BE0008102909382022FE632E143E05AE369E9F1
:101BF00077E48EEF99E30E94570920918302309198
:101C0000840240918502509186020E946E1E60936C
:101C100083027093840280938502909386029DCF05
:101C200060917302709174028091750290917602B6
:101C300020E030EE45EB54E40E94121D87FDB3CF47
:101C400060E070E080E090E00E94000960E971E0EF
:101C500080E991E00E94B50868EC70E080E090E0D7
:101C6000FF90EF90DF90CF900C94B703CF92DF926C
:101C7000EF92FF92109287021092880210928902CE
:101C800010928A0210928B0210928C0210928D0296
:101C900010928E02109273021092740210927502CA
:101CA0001092760210926F021092700210927102DE
:101CB0001092720210926B0210926C0210926D02DE
:101CC00010926E02109267021092680210926902DE
:101CD00010926A0210928F0210929002109291025A
:101CE0001092920280E090E0AAE7B3E4809383022E
:101CF00090938402A0938502B093860280937F0222
:101D000090938002A0938102B093820266E07FEFFD
:101D10008AEF90E00E94000960E070E080E090E0CF
:101D20000E94B50860916F027091700280917102FB
:101D30009091720220E030E643EB54E40E94121DC1
:101D400087FF51C00E94E3092FE632E143E05AE3E6
:101D50006AEF7DEE8BEE99E30E9457099B01AC017F
:101D600060917F0270918002809181029091820245
:101D70000E946E1E60937F027093800280938102A6
:101D8000909382022FE632E143E05AE36EE37BEC6C
:101D900083EF99E30E9457092091830230918402D6
:101DA00040918502509186020E946E1E60938302CC
:101DB00070938402809385029093860290580E94CB
:101DC0007B1F6B017C0160917F027091800280918A
:101DD0008102909182020E947B1FDC01CB01B6013F
:101DE0000E9400099FCF60917302709174028091EC
:101DF00075029091760220E030EC42EB54E40E94B0
:101E0000121D87FD9FCF60E070E080E090E00E94AF
:101E1000000960E971E080E991E00E94B50868EC92
:101E200070E080E090E0FF90EF90DF90CF900C9416
:101E3000B703009769F0FC0101900020E9F73197A2
:101E4000AF01481B590BBC0180E791E00C94741161
:101E500080E090E00895CF93DF93FC0144815581A9
:101E60006081718180E791E00E947411EC0186E24B
:101E700091E00E94190F8C0F9D1FDF91CF91089563
:101E80002F923F924F925F926F927F928F929F928A
:101E9000AF92BF92CF92DF92EF92FF920F931F9378
:101EA000CF93DF93809011029090120281149104DD
:101EB00009F40CC1FC01648075806114710409F49B
:101EC00005C1EB017C01CC80DD80C618D7080091EC
:101ED0000D0210910E02C114D104B1F4F70160811A
:101EE0007181C8010E948B238C01892B09F4EEC0FB
:101EF000688179814C815D81C8010E9469238C8150
:101F00009D81080F191FEACFD7FE02C0580106C0F5
:101F1000FC01408051805401C80144C0F701608138
:101F20007181C5010E948B234C01892B29F1340159
:101F30006A187B08A301B501C8010E946923060D38
:101F4000171D688179814C815D81C8010E946923D8
:101F50008C819D81080F191FF701A480B580A80C02
:101F6000B91C80911102909112028C0D9D1D9093CD
:101F7000120280931102D2CFB501C801DF91CF9137
:101F80001F910F91FF90EF90DF90CF90BF90AF9097
:101F90009F908F907F906F905F904F903F902F9089
:101FA0000C948423B2010E948B23009729F0860DA4
:101FB000971DAC0CBD1CF6CFA814B90409F486C05B
:101FC00080910F02909110028A159B0588F4B5014B
:101FD0006F5F7F4FC8010E949A22009709F476C074
:101FE00090930E0280930D02B0921002A0920F0205
:101FF00000911102109112020150110917FD66C0E3
:10200000F701448055804114510409F45FC0A09049
:102010001102B0901202A114B10409F457C0A41423
:10202000B50408F453C00A151B0518F085010150CA
:10203000110960900D0270900E02C30188248A94E9
:10204000982C1301200E311E2816390638F0F7019E
:10205000608171810E948B23009779F597FC36C0CF
:10206000480C591CC301840D951DA501441955093F
:10207000BC018C0D9D1D0E947223809111029091D4
:1020800012028C0D9D1D90931202809311022091DB
:102090000D0230910E02F901E80FF91F10828091B4
:1020A0000D0290910E02688179814C815D81880DCD
:1020B000991D0E94692384019FCF9C01261937092D
:1020C0000217130708F049010196BECFDF91CF91A7
:1020D0001F910F91FF90EF90DF90CF90BF90AF9046
:1020E0009F908F907F906F905F904F903F902F9038
:1020F0000895CF93DF930E94190FEC0186E291E0DF
:102100000E94190F8C0F9D1FDF91CF9108950F939F
:102110001F93CF93DF93EC0188819981009729F079
:102120002A813B812617370788F48B016F5F7F4F29
:102130000E949A22009761F0998388831B830A8307
:102140002C813D81232B11F4FC01108281E001C020
:1021500080E0DF91CF911F910F910895EF92FF9250
:102160000F931F93CF93DF93FC0124813581611579
:10217000710511F480E019C041155105A9F07B01EA
:10218000EC018A01020F131FB8010E9487108823F7
:1021900089F3288139818C819D81B701820F931F3A
:1021A0000E9484231D830C8381E0DF91CF911F91D6
:1021B0000F91FF90EF900895CF93DF93EC0188810A
:1021C0009981009711F00E940222198218821D82C3
:1021D0001C821B821A82DF91CF910895CF93DF93E7
:1021E000EC0141E050E069E271E00E94AE10811123
:1021F00003C0CE010E94DC10CE01DF91CF91089583
:10220000CF93DF93EC01FB014481558160817181A3
:102210000E94AE10811103C0CE010E94DC10CE01DD
:10222000DF91CF910895EF92FF920F931F93CF9379
:10223000DF938C017B016115710569F0FB01019051
:102240000020E9F73197EF01C61BD70BBE010E94B2
:102250008710811104C0C8010E94DC1008C0F80179
:10226000D583C483B701808191810E948423C801F2
:10227000DF91CF911F910F91FF90EF900895FC0196
:10228000808191810C940222EF92FF920F931F9311
:10229000CF93DF93CDB7DEB7A1970FB6F894DEBF2B
:1022A0000FBECDBF7C01CB01BA01F70111821082B4
:1022B000138212821582148242E0420F8E010F5F58
:1022C0001F4F0E944C1ABC01C7010E941311A19616
:1022D0000FB6F894DEBF0FBECDBFDF91CF911F9137
:1022E0000F91FF90EF900895CF92DF92EF92FF92BF
:1022F0000F931F93CF93DF936C017A018B01C0E0A2
:10230000D0E0CE15DF0589F0D8016D918D01D601A1
:10231000ED91FC910190F081E02DC6010995892B8A
:1023200011F47E0102C02196ECCFC701DF91CF915D
:102330001F910F91FF90EF90DF90CF9008950F9332
:102340001F93CF93DF93CDB7DEB762970FB6F894A4
:10235000DEBF0FBECDBF8C01CB01F8011182108210
:10236000138212821582148250E0BE016F5F7F4F8C
:102370000E946C1ABE016F5F7F4FC8010E9413114B
:1023800062960FB6F894DEBF0FBECDBFDF91CF913E
:102390001F910F910895EF92FF920F931F93CF9388
:1023A000DF93EC01198218821B821A821D821C8223
:1023B0006115710521F18B01FB0101900020E9F706
:1023C00031977F01E61AF70AB7010E948710811141
:1023D00009C0CE01DF91CF911F910F91FF90EF9037
:1023E0000C94DC10FD82EC82B80188819981DF9128
:1023F000CF911F910F91FF90EF900C948423DF9168
:10240000CF911F910F91FF90EF900895CF93DF939D
:10241000CDB7DEB7EA970FB6F894DEBF0FBECDBFDB
:10242000789484B5826084BD84B5816084BD85B5AF
:10243000826085BD85B5816085BD80916E008160BB
:1024400080936E0010928100809181008260809361
:102450008100809181008160809381008091800063
:102460008160809380008091B10084608093B1008E
:102470008091B00081608093B00080917A00846088
:1024800080937A0080917A00826080937A008091B4
:102490007A00816080937A0080917A0080688093CE
:1024A0007A001092C100E0918001F091810182E0F8
:1024B0008083E0917C01F0917D011082E0917E01AA
:1024C000F0917F018FEC808310928801E09184016C
:1024D000F091850186E08083E0918201F091830193
:1024E000808180618083E0918201F091830180810D
:1024F00088608083E0918201F0918301808180680F
:102500008083E0918201F091830180818F7D8083BF
:1025100060EF72E083E00E94F80760EF72E085E010
:102520000E94F8076DEC72E08BE00E94F8076DECFA
:1025300072E08DE00E94F807109267021092680224
:102540001092690210926A0210926B0210926C0251
:1025500010926D0210926E02109277021092780221
:102560001092790210927A0210927B0210927C02F1
:1025700010927D0210927E0210926F0210927002F1
:1025800010927102109272021092730210927402F1
:10259000109275021092760280E090E0A6E1B3E41A
:1025A00080937F0290938002A0938102B093820275
:1025B0008093830290938402A0938502B093860255
:1025C00010928F0210929002109291021092920239
:1025D00010928702109288021092890210928A0249
:1025E00010928B0210928C0210928D0210928E0229
:1025F00061E0809193020E946C0261E080919402FC
:102600000E946C0261E089E00E946C0260E08091AF
:1026100095020E946C0260E0809196020E946C021A
:1026200061E0809197020E946C0261E080919802C3
:102630000E946C0261E08AE00E946C0260E080917E
:1026400099020E946C0260E080919A020E946C02E2
:1026500080EA8093800081E18093810080E991E0AD
:102660009093870080938600812C912CAAE7AA2E54
:10267000A3E4BA2E80E791E00E94C201892BB9F051
:1026800080E791E00E94C201181619061CF580E748
:1026900091E00E94A00189831A8241E050E0BE01CE
:1026A0006F5F7F4F8DE092E00E94AE10E9CF809186
:1026B0003501909136011816190664F480913401A1
:1026C000882341F00E9455060E943E050E94C305E2
:1026D0001092340168E271E0CE0101960E94CB11A4
:1026E00067E271E0CE0107960E94CB11BE016F5FD9
:1026F0007F4FCE0107960E94400FCE0107960E94A1
:102700003F11CE0101960E943F1168E271E0CE01B7
:1027100001960E94CB1169E171E0CE0107960E94FB
:10272000CB11BE016F5F7F4FCE0107960E94400F15
:10273000CE0107960E943F11CE0101960E943F11E3
:1027400010923601109235016091110270911202BF
:1027500040910D0250910E0220E030E0C901261791
:10276000370718F44115510529F410923101E1E3BE
:10277000F1E003C0FA01E20FF31F2F5F3F4FE0814A
:10278000E111ECCF909336018093350101972091B0
:10279000320130913301821B930B02971CF010928F
:1027A000000114C081E08093000110C00E94DF0589
:1027B0008BE191E00E94190F80910001811106C008
:1027C0000E9455060E943E050E94C305E091320119
:1027D000F09133018091350190913601E817F907A6
:1027E0000CF048C481E080933401CF0101969093AE
:1027F0003301809332018091110290911202E81707
:10280000F90730F480910D0290910E02009729F49F
:1028100010923101E1E3F1E002C0E80FF91FE0811D
:102820008E2FEE0F990BAA0BBB0BFC01E755F1099C
:10283000E132F10508F019C4EC5CFF4F0C94532110
:102840001092730210927402109275021092760226
:1028500010926F0210927002109271021092720226
:1028600010926B0210926C0210926D0210926E0226
:1028700010926702109268021092690210926A0226
:1028800010928F0210929002109291021092920276
:1028900010928702109288021092890210928A0286
:1028A00010928B0210928C0210928D0210928E0266
:1028B0008092830290928402A0928502B092860256
:1028C00080927F0290928002A0928102B092820256
:1028D0006AEF70E08AEF90E00E94000960E070E02B
:1028E00080E090E00E94B50860916F0270917002E4
:1028F000809171029091720220E030EE43E854E43E
:102900000E94121D87FDB9C3609173027091740219
:10291000809175029091760220E030EE43E854E415
:102920000E94121D87FDA9C32AC41092730210923F
:102930007402109275021092760210926F02109239
:102940007002109271021092720210926B02109239
:102950006C0210926D0210926E0210926702109239
:1029600068021092690210926A0210928F0210920D
:10297000900210929102109292021092870210928D
:1029800088021092890210928A0210928B02109291
:102990008C0210928D0210928E028092830290928D
:1029A0008402A0928502B092860280927F02909269
:1029B0008002A0928102B09282026AEF70E08AEFF8
:1029C00090E00E94000960E070E080E090E00E94EA
:1029D000B50860916F0270917002809171029091C0
:1029E000720220E030EC40E555E40E94121D87FDA4
:1029F000CFC36091730270917402809175029091BF
:102A0000760220E030EC40E555E40E94121D87FD7F
:102A1000BFC360E070E080E090E00E9400096CE7D6
:102A200071E08CE791E00E94B50868EC70E080E00E
:102A300090E00E94B7030E943E05AEC4109273025C
:102A400010927402109275021092760210926F0228
:102A500010927002109271021092720210926B0228
:102A600010926C0210926D0210926E021092670228
:102A7000109268021092690210926A0210928F02FC
:102A8000109290021092910210929202109287027C
:102A9000109288021092890210928A0210928B0280
:102AA00010928C0210928D0210928E0280E090E0C3
:102AB000A8E4B3E48093830290938402A0938502F8
:102AC000B093860280937F0290938002A09381024C
:102AD000B093820260E070E080E090E00E94B50870
:102AE00060918302709184028091850290918602A8
:102AF0000E947B1F6B017C0160917F0270918002BC
:102B000080918102909182020E947B1FDC01CB01A7
:102B1000B6010E94000960916F027091700280916D
:102B200071029091720220E030E044EB55E40E9483
:102B3000121D87FDAFC36091730270917402809182
:102B400075029091760220E030E044EB55E40E945B
:102B5000121D87FD9FC305C4109287021092880240
:102B60001092890210928A0210928B0210928C02AB
:102B700010928D0210928E021092730210927402C3
:102B8000109275021092760210926F0210927002EB
:102B9000109271021092720210926B0210926C02EB
:102BA00010926D0210926E021092670210926802EB
:102BB0001092690210926A0210928F021092900293
:102BC000109291021092920280928302909284025B
:102BD000A0928502B092860280927F02909280023B
:102BE000A0928102B092820266E07FEF8AEF90E0CD
:102BF0000E94000960E070E080E090E00E94B5086B
:102C000060916F02709170028091710290917202D6
:102C100020E030EB4EE355E40E94121D87FF51C0C7
:102C20000E94E3092FE632E143E05AE368E27CE2E6
:102C300081EF99E30E9457099B01AC0160917F02EB
:102C40007091800280918102909182020E946E1E9A
:102C500060937F027093800280938102909382023E
:102C60002FE632E143E05AE367E270EA89E09AE353
:102C70000E9457092091830230918402409185027D
:102C8000509186020E946E1E6093830270938402AC
:102C9000809385029093860290580E947B1F6B015F
:102CA0007C0160917F0270918002809181029091FD
:102CB00082020E947B1FDC01CB01B6010E94000949
:102CC0009FCF609173027091740280917502909110
:102CD000760220E030EB4EE355E40E94121D87FDA2
:102CE0009FCF60E070E080E090E00E94000960E922
:102CF00071E048C30E944F0D4FC30E94360E4CC373
:102D00000E94010D49C30E94010D0E94DF050E942F
:102D1000360E0E94010D0E94DF050E944F0D0E9499
:102D20004D053AC368E271E0CE0101960E94CB11D5
:102D3000BE016F5F7F4F8DE092E00E94400FCE0199
:102D400001960E943F1110923601109235011092A7
:102D500033011092320120C389E592E00E943B04C6
:102D600020E030E040E651E40E94121D181624F0E5
:102D7000EE24E394F12C03C0EE24EA94FE2C8DE3C0
:102D800092E00E943B0420E030E040E751E40E94E2
:102D9000121D181624F0CC24C394D12C03C0CC24CB
:102DA000CA94DC2C8BE492E00E943B0420E030E0EB
:102DB00040E651E40E94121D181624F022242394A8
:102DC000312C03C022242A94322C83E192E00E9409
:102DD0003B042B013C0120E030E048E252E40E9439
:102DE000D81F181654F42AE939E94DE452E4C30116
:102DF000B2010E94121D1816ACF520E030E040E050
:102E000052E4C301B2010E94D81F181654F420E006
:102E100030E048E252E4C301B2010E94121D1816CC
:102E200024F520E030E04CEB51E4C301B2010E94F4
:102E3000D81F181654F420E030E040E052E4C301FB
:102E4000B2010E94121D18169CF420E030E04CEBF9
:102E500051E4C301B2010E94121D181664F001E092
:102E600010E00BC004E010E008C003E010E005C073
:102E700002E010E002C00FEF1FEF8FE292E00E942D
:102E80003B0420E030E048E751E40E94121D181690
:102E900024F044244394512C03C044244A94542CD9
:102EA00081E292E00E943B0420E030E048E751E4F8
:102EB0000E94121D181624F066246394712C03C01E
:102EC00066246A94762C4AE0B801CE0101960E94ED
:102ED0009F114AE0B301CE0107960E949F114AE07C
:102EE000B201CE010D960E949F114AE0B101CE01C0
:102EF00043960E949F114AE0B601CE0149960E9476
:102F00009F114AE0B701CE014F960E949F115EC00B
:102F100089E592E00E943B046BA77CA78DA79EA742
:102F20008DE392E00E943B046FA778AB89AB9AAB2C
:102F30008BE492E00E943B046B017C0183E192E010
:102F40000E943B046BAB7CAB8DAB9EAB8FE292E0FF
:102F50000E943B046FAB78AF89AF9AAF81E292E0F9
:102F60000E943B042B013C0122E04BA95CA96DA906
:102F70007EA9CE0101960E94441122E0B301A20174
:102F8000CE0107960E94441122E04FA958AD69ADC9
:102F90007AADCE010D960E94441122E0B701A60140
:102FA000CE0143960E94441122E04FA558A969A979
:102FB0007AA9CE0149960E94441122E04BA55CA556
:102FC0006DA57EA5CE014F960E9444116EE171E081
:102FD000CE0185960E94CB11BE01615E7F4FCE016E
:102FE00085960E9400110E94EE10BE01675E7F4F21
:102FF0000E9400110E94EE10BE016D5E7F4F0E9484
:1030000000110E94EE10BE01635F7F4F0E9400110D
:103010000E94EE10BE01695F7F4F0E9400110E9466
:10302000EE10BE016F5F7F4F0E9400110E942B0FB8
:10303000CE0185960E943F11CE014F960E943F110E
:10304000CE0149960E943F11CE0143960E943F1146
:10305000CE010D960E943F11CE0107960E943F11AE
:10306000CE0101960E943F11A7CB80E291E00E9421
:103070007910A2CB0E946202FDCA0E94E3092AE0F5
:1030800037ED43EA5BE369E977E48EEF99E30E9469
:1030900057099B01AC0160917F0270918002809181
:1030A0008102909182020E946E1E60937F02709353
:1030B0008002809381029093820226EA3BE944E4F5
:1030C0005BE36EE37FE38CE09AE30E945709209173
:1030D00083023091840240918502509186020E94C1
:1030E0006E1E6B017C016093830270938402809357
:1030F00085029093860220E030E0A90160917F0272
:103100007091800280918102909182020E94121D32
:1031100087FF08C010927F021092800210928102F5
:103120001092820220E030E0A901C701B6010E949E
:10313000121D87FF08C01092830210928402109221
:1031400085021092860260918302709184028091C0
:103150008502909186020E947B1F6B017C01609129
:103160007F027091800280918102909182020E9480
:103170007B1FDC01CB01B6010E940009B5CB60E0EA
:1031800070E080E090E00E9400096BE871E0FAC016
:103190000E94E3092AE037ED43EA5BE369E977E45B
:1031A0008EEF99E30E9457099B01AC0160917F0269
:1031B0007091800280918102909182020E946E1E25
:1031C00060937F02709380028093810290938202C9
:1031D0002AE037ED43EA5BE36EE37FE38CE09AE3BA
:1031E0000E94570920918302309184024091850208
:1031F000509186020E946E1E6B017C0160938302D7
:1032000070938402809385029093860220E030E0E0
:10321000A90160917F02709180028091810290915A
:1032200082020E94121D87FF08C010927F02109236
:103230008002109281021092820220E030E0A90107
:10324000C701B6010E94121D87FF08C010928302B9
:10325000109284021092850210928602609183027D
:103260007091840280918502909186020E947B1F5A
:103270006B017C0160917F027091800280918102DC
:10328000909182020E947B1FDC01CB01B6010E945B
:1032900000099FCB0E94E3092AE037ED43EA5BE394
:1032A00069E977E48EEF99E30E9457099B01AC012D
:1032B00060917F02709180028091810290918202E0
:1032C0000E946E1E60937F02709380028093810241
:1032D000909382022AE037ED43EA5BE367E270EA0B
:1032E00089E09AE30E945709209183023091840279
:1032F00040918502509186020E946E1E6B017C01F6
:103300006093830270938402809385029093860277
:1033100020E030E0A90160917F02709180028091ED
:103320008102909182020E94121D87FF08C01092B4
:103330007F0210928002109281021092820220E09D
:1033400030E0A901C701B6010E94121D87FFC8CB5A
:1033500010928302109284021092850210928602CB
:10336000BFCB60E070E080E090E00E94000960E97F
:1033700071E080E991E00E94B50862E370E080E0CE
:1033800090E008C080E991E00E94B50868EC70E028
:1033900080E090E00E94B7038BE191E068CE8DE081
:1033A00092E00C943F11E0E7F1E01382128288EE84
:1033B00093E0A0E0B0E084839583A683B7838BE09D
:1033C00091E09183808385EC90E09587848784ECFD
:1033D00090E09787868780EC90E0918B808B81ECE2
:1033E00090E0938B828B82EC90E0958B848B86ECC3
:1033F00090E0978B868B118E128E138E148EE7E6DB
:10340000F2E092E094A784E085A786E086A73EE0FC
:1034100037A787E080AB88E081AB8CE082AB2FE000
:1034200023ABE9E5F2E081E08083318316821782E5
:1034300010861186EBE4F2E08083218316821782E6
:1034400010861186EDE3F2E0808320E1218316826D
:10345000178210861186EFE2F2E0808321E121835A
:103460001682178210861186E1E2F2E0808382E103
:1034700081831682178210861186E3E1F2E0908341
:1034800083E18183168217821086118668E271E0DB
:103490008DE092E00C94CB11EF920F931F93CF939A
:1034A000DF93E80147FD02C034E001C034E1E42FBE
:1034B000440FFF0BF7FF03C0F195E195F109E32EEF
:1034C000022F2E2FAE010E949C1ACE01DF91CF91C8
:1034D0001F910F91EF9008954532510520F442302D
:1034E00010F00C94771AFB011082CB010895BB27D2
:1034F0004A3031F4992322F4BDE2909581959F4F93
:103500000C94831ABB27FB015527AA27880F991F04
:10351000AA1FA41710F0A41B83955051B9F7A05D02
:10352000AA3308F0A95DA193009779F7B111B1937F
:103530001192CB010C94021D4F925F926F927F9279
:103540009F92AF92BF92CF92DF92EF92FF920F9332
:103550001F93CF93DF93CDB7DEB729970FB6F894BB
:10356000DEBF0FBECDBF6A01122FB02E2BE3201796
:1035700020F0FF24F394F00E02C0BCE3FB2E0F2DCD
:1035800027E0AE014F5F5F4F0E942A1CAC0189818A
:10359000982F9970913031F0E1FC06C0E0FE06C032
:1035A00090E205C09DE203C09BE201C090E0EE2DD9
:1035B000E07183FF3CC0911102C083E001C084E050
:1035C000811718F4212F281B01C020E0E1110BC046
:1035D000F601822F30E2882319F031938150FBCF1E
:1035E000C20ED11C20E0992329F0D6019C93F6014C
:1035F00031966F01C6010396E2FE0AC03EE4D60191
:103600003C9341E411964C93119712963C9306C05B
:103610003EE6F601308341E641833283FC01322FDE
:1036200040E2332309F442C041933150FACF82FF84
:1036300044C0911102C083E001C084E0811718F4F6
:10364000212F281B01C020E0E1110BC0F601822FC1
:1036500030E2882319F031938150FBCFC20ED11C88
:1036600020E0992329F0D6019C93F60131966F0151
:10367000C6010396E2FE0BC039E4D6013C933EE45A
:1036800011963C93119736E412963C9307C039E6A5
:10369000F60130833EE6318336E63283FC01322F79
:1036A00040E2332319F041933150FBCFFC01E20F8C
:1036B000F11D10828EEF9FEFB7C0F1E0911101C0B4
:1036C000F0E06F2F70E01416150624F49A012F5FB6
:1036D0003F4F02C021E030E0260F371FBB2029F00A
:1036E0006B2D70E06F5F7F4F02C060E070E0260FCF
:1036F000371F612F70E0261737071CF4121B212F8C
:1037000001C020E03E2D387159F4D601322F60E21D
:10371000332319F06D933150FBCFC20ED11C20E042
:10372000FF2331F0D6019C93B6016F5F7F4F6B0191
:10373000E1110BC0F601922F30E3992319F0319378
:103740009150FBCFC20ED11C20E09F2D940F3A81E7
:10375000782F7071A72E84FF03C0313309F4915084
:10376000191624F4993018F098E001C091E0E42F84
:10377000852F57FF02C0E0E080E06E2F782FE0E059
:10378000F0E0AEE29A2E3A01691A71082A01461A4F
:10379000570A0B2D10E01195019511096F3F8FEF1E
:1037A000780729F4D6019C92C60101966C01461750
:1037B000570784F0661677066CF47F01E40CF51C5D
:1037C000A1E0B0E0AC0FBD1FEA0EFB1ED7011196C1
:1037D000BC9002C090E3B92E615071093196C601C8
:1037E00001967C016017710724F0D601BC926C0130
:1037F000D5CF6417750741F4363320F4353321F4FF
:10380000A11002C081E3B82EF601B082F701822F29
:1038100090E2882319F091938150FBCFF701E20FDA
:10382000F11D108280E090E029960FB6F894DEBF7B
:103830000FBECDBFDF91CF911F910F91FF90EF9001
:10384000DF90CF90BF90AF909F907F906F905F90F0
:103850004F900895283008F027E03327DA01990FB8
:10386000311D87FD916000966105710539F4326064
:103870002E5F3D9330E32A95E1F708959F3F30F0A6
:1038800080387105610509F03C5F3C5F3D939130E4
:1038900008F08068911DDF93CF931F930F93FF92E1
:1038A000EF92192F987F9695E92F96959695E90FA7
:1038B000FF27EC54FE4F99273327EE24FF24A7015E
:1038C000E70105900894079428F4360FE71EF81EC8
:1038D000491F511D660F771F881F991F0694A1F776
:1038E0000590079428F4E70EF81E491F561FC11DC6
:1038F000770F881F991F661F0694A1F705900794FC
:1039000028F4F80E491F561FC71FD11D880F991F95
:10391000661F771F0694A1F70590079420F4490FBE
:10392000561FC71FD81F990F661F771F881F069441
:10393000A9F784911095177041F0D695C7955795C2
:103940004795F794E7941A95C1F7EAE5F1E0689492
:103950001590159135916591959105907FE273953C
:10396000E118F10A430B560BC90BD009C0F7E10C63
:10397000F11E431F561FC91FD01D7EF4703311F472
:103980008A95E6CFE894015030F0080F0AF400273A
:10399000021708F4202F2395022F7A3328F079E3B9
:1039A0007D932A95E9F710C07D932A9589F60694B0
:1039B00097956795379517951794E118F10A430B7A
:1039C000560BC90BD00998F023957E9173957A33E5
:1039D00008F070E37C932013B8F77E9170617D93BB
:1039E00030F0839571E37D9370E32A95E1F711241C
:1039F000EF90FF900F911F91CF91DF91992787FD55
:103A000090950895DC01FC01672F71917723E1F710
:103A1000329704C07C916D9370836291AE17BF079B
:103A2000C8F308950E94541D08F481E00895E894B5
:103A300009C097FB3EF490958095709561957F4FF6
:103A40008F4F9F4F9923A9F0F92F96E9BB279395A4
:103A5000F695879577956795B795F111F8CFFAF4B4
:103A6000BB0F11F460FF1BC06F5F7F4F8F4F9F4FE5
:103A700016C0882311F096E911C0772321F09EE843
:103A8000872F762F05C0662371F096E8862F70E0A9
:103A900060E02AF09A95660F771F881FDAF7880F83
:103AA0009695879597F90895990F0008550FAA0BD9
:103AB000E0E8FEEF16161706E807F907C0F0121641
:103AC0001306E407F50798F0621B730B840B950B44
:103AD00039F40A2661F0232B242B252B21F4089599
:103AE0000A2609F4A140A6958FEF811D811D089536
:103AF0000E948B1D0C94FC1D0E94EE1D38F00E944C
:103B0000F51D20F0952311F00C94E51D0C94EB1D90
:103B100011240C94301E0E940D1E70F3959FC1F36A
:103B2000950F50E0551F629FF001729FBB27F00D6B
:103B3000B11D639FAA27F00DB11DAA1F649F6627C0
:103B4000B00DA11D661F829F2227B00DA11D621F0F
:103B5000739FB00DA11D621F839FA00D611D221FC9
:103B6000749F3327A00D611D231F849F600D211DAD
:103B7000822F762F6A2F11249F5750409AF0F1F030
:103B800088234AF0EE0FFF1FBB1F661F771F881F99
:103B900091505040A9F79E3F510580F00C94E51DCF
:103BA0000C94301E5F3FE4F3983ED4F386957795EE
:103BB0006795B795F795E7959F5FC1F7FE2B880F3F
:103BC000911D9695879597F9089597F99F6780E8D5
:103BD00070E060E008959FEF80EC089500240A945F
:103BE0001616170618060906089500240A941216D8
:103BF0001306140605060895092E0394000C11F40B
:103C0000882352F0BB0F40F4BF2B11F460FF04C0B7
:103C10006F5F7F4F8F4F9F4F089557FD9058440F10
:103C2000551F59F05F3F71F04795880F97FB991F1B
:103C300061F09F3F79F087950895121613061406D8
:103C4000551FF2CF4695F1DF08C016161706180665
:103C5000991FF1CF86957105610508940895E89440
:103C6000BB2766277727CB0197F908952F923F92BC
:103C70004F925F926F927F928F929F92AF92BF927C
:103C8000CF92DF92EF92FF920F931F93CF93DF9328
:103C9000CDB7DEB7CA1BDB0B0FB6F894DEBF0FBE85
:103CA000CDBF09942A88398848885F846E847D84D2
:103CB0008C849B84AA84B984C884DF80EE80FD80D4
:103CC0000C811B81AA81B981CE0FD11D0FB6F8944A
:103CD000DEBF0FBECDBFED0108955058BB27AA2708
:103CE0000E94851E0C94FC1D0E94EE1D38F00E945F
:103CF000F51D20F039F49F3F19F426F40C94EB1DC8
:103D00000EF4E095E7FB0C94E51DE92F0E940D1ED3
:103D100058F3BA17620773078407950720F079F400
:103D2000A6F50C942F1E0EF4E0950B2EBA2FA02DA5
:103D30000B01B90190010C01CA01A0011124FF2758
:103D4000591B99F0593F50F4503E68F11A16F04053
:103D5000A22F232F342F4427585FF3CF4695379552
:103D60002795A795F0405395C9F77EF41F16BA0B17
:103D7000620B730B840BBAF09150A1F0FF0FBB1FC5
:103D8000661F771F881FC2F70EC0BA0F621F731F0E
:103D9000841F48F4879577956795B795F7959E3F6B
:103DA00008F0B0CF9395880F08F09927EE0F9795FC
:103DB00087950895DF93DD27B92FBF7740E85FE34C
:103DC0001616170648075B0718F4D92F0E94DD1F47
:103DD0009F938F937F936F930E943520EAEAF0E0E0
:103DE0000E94B11F0E94FC1D2F913F914F915F9146
:103DF0000E948B1DDD2351F09058A2EA2AED3FE08E
:103E000049EC5FE3D0785D270E94851EDF910C941A
:103E1000FC1D0E941D1F0C94FC1D0E94F51D58F0F6
:103E20000E94EE1D40F029F45F3F29F00C94E51D3F
:103E300051110C94301E0C94EB1D0E940D1E68F362
:103E40009923B1F3552391F3951B550BBB27AA2753
:103E500062177307840738F09F5F5F4F220F331F8D
:103E6000441FAA1FA9F335D00E2E3AF0E0E832D055
:103E700091505040E695001CCAF72BD0FE2F29D058
:103E8000660F771F881FBB1F261737074807AB072A
:103E9000B0E809F0BB0B802DBF01FF2793585F4F9F
:103EA0003AF09E3F510578F00C94E51D0C94301EBD
:103EB0005F3FE4F3983ED4F3869577956795B79581
:103EC000F7959F5FC9F7880F911D9695879597F98C
:103ED0000895E1E0660F771F881FBB1F6217730705
:103EE0008407BA0720F0621B730B840BBA0BEE1F1A
:103EF00088F7E09508950E94821F6894B1110C9490
:103F0000301E08950E94151E88F09F5798F0B92F13
:103F10009927B751B0F0E1F0660F771F881F991FFE
:103F20001AF0BA95C9F714C0B13091F00E942F1E53
:103F3000B1E008950C942F1E672F782F8827B85F63
:103F400039F0B93FCCF3869577956795B395D9F756
:103F50003EF490958095709561957F4F8F4F9F4F60
:103F60000895DF93CF931F930F93FF92EF92DF9209
:103F70007B018C01689406C0DA2EEF010E948B1D34
:103F8000FE01E894A5912591359145915591A6F3AF
:103F9000EF010E94851EFE019701A801DA9469F7DE
:103FA000DF90EF90FF900F911F91CF91DF910895D7
:103FB0000E94541D08F48FEF08959B01AC0160E04E
:103FC00070E080E89FE30C94091FFA01EE0FFF1FD9
:103FD000309621053105A1F16115710561F4803834
:103FE000BFE39B0749F168949038810561F0803800
:103FF000BFEF9B0741F099234AF5FF3FE1053105EB
:10400000210519F1E8940894E795D901AA2329F428
:10401000AB2FBE2FF85FD0F310C0FF5F70F4A695F2
:10402000E0F7F73950F019F0FF3A38F49F779F9393
:104030000DD00F9007FC9058089546F00C94EB1D9E
:1040400060E070E080E89FE308954FE79F775F931B
:104050004F933F932F930E94B5202F913F914F9103
:104060005F910E94781D0C9441209B01AC010C943F
:10407000781D29F416F00C94E51D0C942F1E0C9459
:10408000EB1D0E94151EA8F39638A0F707F80F92B3
:10409000E8942BE33AEA48EB5FE70E948E1D0F920B
:1040A0000F920F924DB75EB70F920E94FD20E7ED81
:1040B000F0E00E94B11F4F915F91EF91FF91E59564
:1040C000EE1FFF1F49F0FE57E0684427EE0F441F24
:1040D000FA95E1F74195550B0E9477200F9007FE66
:1040E0000C94DD1F08950C94E51D0C9431210E9461
:1040F000151ED8F39923C9F3940F511DA3F39150C2
:10410000504094F059F0882332F0660F771F881FD3
:1041100091505040C1F79E3F51052CF7880F911DDB
:104120009695879597F908955F3FACF0983E9CF07F
:10413000BB27869577956795B79508F4B1609395F9
:10414000C1F7BB0F58F711F460FFE8CF6F5F7F4FE7
:104150008F4F9F4FE3CF0C94301E16F00C943121FB
:104160000C94EB1D68940C94E51D0E94151EA8F399
:104170009923C1F3AEF3DF93CF931F930F93FF9275
:10418000C92FDD2788232AF02197660F771F881F04
:10419000DAF720E030E040E85FEB9FE3883920F079
:1041A000803E38F021968F770E946E1EEFEFF0E090
:1041B00004C00E946E1EECE2F1E00E94B11F8B0170
:1041C000BE01EC01FB2E6F5771097595771F880BA7
:1041D000990B0E94191D28E132E741E35FE30E9439
:1041E0008B1DAF2D9801AE01FF900F911F91CF91C4
:1041F000DF910E94851E0C94FC1DFA01DC01AA0FC0
:10420000BB1F9B01AC01BF5728F42227332744274B
:10421000507820C0B75190F4AB2F002446953795C5
:104220002795011CA395D2F3002071F0220F331FB4
:10423000441FB395DAF30ED00C946D1E61307105F6
:10424000A0E88A07B94630F49B01AC0166277727BE
:1042500088279078309621F02083318342835383DE
:1042600008959F3F31F0915020F487957795679599
:10427000B795880F911D9695879597F9089597FBA7
:10428000072E16F4009407D077FD09D00E9459211B
:1042900007FC05D03EF4909581959F4F0895709549
:1042A00061957F4F0895EE0FFF1F0590F491E02D6B
:1042B0000994AA1BBB1B51E107C0AA1FBB1FA6176D
:1042C000B70710F0A61BB70B881F991F5A95A9F7BF
:1042D00080959095BC01CD010895CF93DF938230F6
:1042E000910510F482E090E0E0919F02F091A0022D
:1042F00020E030E0C0E0D0E0309711F14081518102
:1043000048175907C0F04817590761F48281938113
:10431000209719F09B838A832BC09093A0028093EF
:104320009F0226C02115310519F04217530718F4D2
:104330009A01BE01DF01EF010280F381E02DDCCFA5
:104340002115310509F1281B390B2430310590F472
:1043500012968D919C9113976115710521F0FB01C7
:104360009383828304C09093A00280939F02FD01F7
:10437000329644C0FD01E20FF31F819391932250C6
:1043800031092D933C933AC020919D0230919E02B9
:10439000232B41F4209103013091040130939E02BC
:1043A00020939D02209101013091020121153105D8
:1043B00041F42DB73EB74091050150910601241BF1
:1043C000350BE0919D02F0919E02E217F307A0F4F5
:1043D0002E1B3F0B2817390778F0AC014E5F5F4F5B
:1043E0002417350748F04E0F5F1F50939E024093ED
:1043F0009D028193919302C0E0E0F0E0CF01DF9154
:10440000CF9108950F931F93CF93DF93009709F4F3
:104410008CC0FC0132971382128200919F0210918E
:10442000A0020115110581F420813181820F931FB3
:1044300020919D0230919E022817390779F5F0935B
:104440009E02E0939D0271C0D80140E050E0AE179B
:10445000BF0750F412962D913C911397AD01211591
:10446000310509F1D901F3CF9D01DA0133832283AC
:1044700060817181860F971F8217930769F4EC01A1
:1044800028813981260F371F2E5F3F4F31832083CC
:104490008A819B8193838283452B29F4F093A00228
:1044A000E0939F0242C01396FC93EE931297ED01A6
:1044B000499159919E01240F351FE217F30771F4BA
:1044C00080819181840F951F029611969C938E9303
:1044D0008281938113969C938E931297E0E0F0E093
:1044E000D80112968D919C911397009719F0F801BD
:1044F0008C01F6CF8D919C9198012E5F3F4F820FDA
:10450000931F20919D0230919E022817390769F46C
:10451000309729F41092A00210929F0202C01382D9
:10452000128210939E0200939D02DF91CF911F9102
:104530000F910895A0E0B0E0E0EAF2E20C943A1E98
:10454000EC01009721F4CB010E946D21B8C0FC0161
:10455000E60FF71F9C0122503109E217F30708F418
:10456000ACC0D9010D911C91119706171707B0F037
:104570000530110508F49FC0C801049786179707F6
:1045800008F499C002501109061B170B01931193EF
:104590006D937C93CF010E9402228DC05B01A01A13
:1045A000B10A4C01800E911EA0919F02B091A00211
:1045B00040E050E0E12CF12C109709F44AC0A81516
:1045C000B905D1F56D907C901197630182E0C80E1A
:1045D000D11CCA14DB0480F1A3014A195B096A01EA
:1045E00082E0C80ED11C1296BC9012971396AC9123
:1045F000B5E0CB16D10440F0B282A383518340834F
:10460000D9016D937C930AC00E5F1F4FC301800FC9
:10461000911FF90191838083EB2DFA2FE114F104AE
:1046200031F0D7011396FC93EE93129744C0F093A8
:10463000A002E0939F023FC08D919C911197481773
:10464000590708F4AC017D0112960D90BC91A02D84
:10465000B3CF80919D0290919E0288159905E1F457
:1046600046175707C8F48091010190910201009705
:1046700041F48DB79EB74091050150910601841B0E
:10468000950BE817F907C8F4F0939E02E0939D029A
:10469000F901718360830FC0CB010E946D217C0101
:1046A000009759F0A801BE010E946923CE010E9423
:1046B0000222C70104C0CE0102C080E090E0CDB765
:1046C000DEB7EEE00C94561E81E090E0F8940C9476
:1046D000A523FB01DC0102C001900D924150504026
:1046E000D8F708956817790768F4FB01DC01E40F37
:1046F000F51FA40FB51F02C002900E92415050400A
:10470000D8F708950C946923FB01DC0101900D9208
:104710000020E1F70895FB0151915523A9F0BF0155
:10472000DC014D9145174111E1F759F4CD0101909C
:10473000002049F04D9140154111C9F3FB01411191
:10474000EFCF81E090E00197089511E0C2E6D1E05B
:1047500004C0FE010E9453212196C336D107C9F738
:04476000F894FFCFFB
:10476400010000A102800000000000F90174119111
:10477400014002C201A001B4010D005059005000D3
:0C4784004572726F72000D0A002C0000DC
:107E0000112484B714BE81FFF0D085E080938100F7
:107E100082E08093C00088E18093C10086E0809377
:107E2000C20080E18093C4008EE0C9D0259A86E02C
:107E300020E33CEF91E0309385002093840096BBD3
:107E4000B09BFECF1D9AA8958150A9F7CC24DD24C4
:107E500088248394B5E0AB2EA1E19A2EF3E0BF2EE7
:107E6000A2D0813461F49FD0082FAFD0023811F036
:107E7000013811F484E001C083E08DD089C08234E0
:107E800011F484E103C0853419F485E0A6D080C0E4
:107E9000853579F488D0E82EFF2485D0082F10E0AE
:107EA000102F00270E291F29000F111F8ED06801E7
:107EB0006FC0863521F484E090D080E0DECF843638
:107EC00009F040C070D06FD0082F6DD080E0C81688
:107ED00080E7D80618F4F601B7BEE895C0E0D1E017
:107EE00062D089930C17E1F7F0E0CF16F0E7DF06D8
:107EF00018F0F601B7BEE89568D007B600FCFDCFD4
:107F0000A601A0E0B1E02C9130E011968C91119780
:107F100090E0982F8827822B932B1296FA010C0160
:107F200087BEE89511244E5F5F4FF1E0A038BF0790
:107F300051F7F601A7BEE89507B600FCFDCF97BE46
:107F4000E89526C08437B1F42ED02DD0F82E2BD052
:107F50003CD0F601EF2C8F010F5F1F4F84911BD097
:107F6000EA94F801C1F70894C11CD11CFA94CF0C13
:107F7000D11C0EC0853739F428D08EE10CD085E9AC
:107F80000AD08FE07ACF813511F488E018D01DD067
:107F900080E101D065CF982F8091C00085FFFCCF94
:107FA0009093C60008958091C00087FFFCCF809118
:107FB000C00084FD01C0A8958091C6000895E0E648
:107FC000F0E098E1908380830895EDDF803219F02E
:107FD00088E0F5DFFFCF84E1DECF1F93182FE3DFCA
:107FE0001150E9F7F2DF1F91089580E0E8DFEE27F6
:047FF000FF270994CA
:027FFE00040479
:0400000300007E007B
:00000001FF